{
  "_format": "hh-sol-artifact-1",
  "contractName": "DummyPriceOracle",
  "sourceName": "contracts/mocks/DummyPriceOracle.sol",
  "abi": [
    {
      "inputs": [
        {
          "internalType": "int256",
          "name": "_value",
          "type": "int256"
        }
      ],
      "stateMutability": "nonpayable",
      "type": "constructor"
    },
    {
      "inputs": [],
      "name": "latestAnswer",
      "outputs": [
        {
          "internalType": "int256",
          "name": "",
          "type": "int256"
        }
      ],
      "stateMutability": "view",
      "type": "function"
    },
    {
      "inputs": [
        {
          "internalType": "int256",
          "name": "_value",
          "type": "int256"
        }
      ],
      "name": "set",
      "outputs": [],
      "stateMutability": "nonpayable",
      "type": "function"
    }
  ],
  "bytecode": "0x608060405234801561001057600080fd5b506040516102183803806102188339818101604052810190610032919061008c565b6100418161004760201b60201c565b506100b9565b8060008190555050565b600080fd5b6000819050919050565b61006981610056565b811461007457600080fd5b50565b60008151905061008681610060565b92915050565b6000602082840312156100a2576100a1610051565b5b60006100b084828501610077565b91505092915050565b610150806100c86000396000f3fe608060405234801561001057600080fd5b50600436106100365760003560e01c806350d25bcd1461003b578063e5c19b2d14610059575b600080fd5b610043610075565b60405161005091906100a1565b60405180910390f35b610073600480360381019061006e91906100ed565b61007e565b005b60008054905090565b8060008190555050565b6000819050919050565b61009b81610088565b82525050565b60006020820190506100b66000830184610092565b92915050565b600080fd5b6100ca81610088565b81146100d557600080fd5b50565b6000813590506100e7816100c1565b92915050565b600060208284031215610103576101026100bc565b5b6000610111848285016100d8565b9150509291505056fea264697066735822122064fe8bfe3a03ddc5a2a01ebb4100552b4421b06ca8bb13c3e372f0e017832fbd64736f6c63430008090033",
  "linkReferences": {},
  "deployedLinkReferences": {}
}