{
  "_format": "hh-sol-artifact-1",
  "contractName": "PNSGuardian",
  "sourceName": "contracts/PNSGuardian.sol",
  "abi": [
    {
      "anonymous": false,
      "inputs": [
        {
          "indexed": false,
          "internalType": "uint8",
          "name": "version",
          "type": "uint8"
        }
      ],
      "name": "Initialized",
      "type": "event"
    },
    {
      "anonymous": false,
      "inputs": [
        {
          "indexed": true,
          "internalType": "address",
          "name": "owner",
          "type": "address"
        },
        {
          "indexed": true,
          "internalType": "bytes32",
          "name": "phoneHash",
          "type": "bytes32"
        },
        {
          "indexed": false,
          "internalType": "uint256",
          "name": "verifiedAt",
          "type": "uint256"
        }
      ],
      "name": "PhoneVerified",
      "type": "event"
    },
    {
      "inputs": [
        {
          "internalType": "bytes32",
          "name": "phoneHash",
          "type": "bytes32"
        }
      ],
      "name": "getVerificationRecord",
      "outputs": [
        {
          "components": [
            {
              "internalType": "uint256",
              "name": "verifiedAt",
              "type": "uint256"
            },
            {
              "internalType": "bool",
              "name": "isVerified",
              "type": "bool"
            },
            {
              "internalType": "bool",
              "name": "exists",
              "type": "bool"
            },
            {
              "internalType": "address",
              "name": "owner",
              "type": "address"
            },
            {
              "internalType": "bytes32",
              "name": "phoneHash",
              "type": "bytes32"
            }
          ],
          "internalType": "struct IPNSSchema.VerificationRecord",
          "name": "",
          "type": "tuple"
        }
      ],
      "stateMutability": "view",
      "type": "function"
    },
    {
      "inputs": [
        {
          "internalType": "bytes32",
          "name": "phoneHash",
          "type": "bytes32"
        }
      ],
      "name": "getVerificationStatus",
      "outputs": [
        {
          "internalType": "bool",
          "name": "",
          "type": "bool"
        }
      ],
      "stateMutability": "view",
      "type": "function"
    },
    {
      "inputs": [],
      "name": "guardianVerifier",
      "outputs": [
        {
          "internalType": "address",
          "name": "",
          "type": "address"
        }
      ],
      "stateMutability": "view",
      "type": "function"
    },
    {
      "inputs": [
        {
          "internalType": "address",
          "name": "_guardianVerifier",
          "type": "address"
        }
      ],
      "name": "initialize",
      "outputs": [],
      "stateMutability": "nonpayable",
      "type": "function"
    },
    {
      "inputs": [],
      "name": "registryAddress",
      "outputs": [
        {
          "internalType": "address",
          "name": "",
          "type": "address"
        }
      ],
      "stateMutability": "view",
      "type": "function"
    },
    {
      "inputs": [],
      "name": "registryContract",
      "outputs": [
        {
          "internalType": "contract IPNSRegistry",
          "name": "",
          "type": "address"
        }
      ],
      "stateMutability": "view",
      "type": "function"
    },
    {
      "inputs": [
        {
          "internalType": "address",
          "name": "_guardianVerifier",
          "type": "address"
        }
      ],
      "name": "setGuardianVerifier",
      "outputs": [],
      "stateMutability": "nonpayable",
      "type": "function"
    },
    {
      "inputs": [
        {
          "internalType": "address",
          "name": "_registryAddress",
          "type": "address"
        }
      ],
      "name": "setPNSRegistry",
      "outputs": [],
      "stateMutability": "nonpayable",
      "type": "function"
    },
    {
      "inputs": [
        {
          "internalType": "bytes32",
          "name": "phoneHash",
          "type": "bytes32"
        },
        {
          "internalType": "bytes32",
          "name": "_hashedMessage",
          "type": "bytes32"
        },
        {
          "internalType": "bool",
          "name": "status",
          "type": "bool"
        },
        {
          "internalType": "bytes",
          "name": "_signature",
          "type": "bytes"
        }
      ],
      "name": "setVerificationStatus",
      "outputs": [],
      "stateMutability": "nonpayable",
      "type": "function"
    }
  ],
  "bytecode": "0x608060405234801561001057600080fd5b5061194b806100206000396000f3fe608060405234801561001057600080fd5b50600436106100935760003560e01c8063be09f19f11610066578063be09f19f14610134578063be2abc4814610150578063c256cdae1461016c578063c4d66de814610188578063ed9aab51146101a457610093565b806311502b641461009857806328c1f99b146100b65780636346000b146100d45780638108c04414610104575b600080fd5b6100a06101c2565b6040516100ad9190610e4e565b60405180910390f35b6100be6101e8565b6040516100cb9190610ec8565b60405180910390f35b6100ee60048036038101906100e99190610f2d565b61020e565b6040516100fb9190610f75565b60405180910390f35b61011e60048036038101906101199190610f2d565b6102de565b60405161012b919061103e565b60405180910390f35b61014e60048036038101906101499190611085565b6103b1565b005b61016a60048036038101906101659190611085565b610485565b005b61018660048036038101906101819190611224565b6105bc565b005b6101a2600480360381019061019d9190611085565b6108a5565b005b6101ac610a1d565b6040516101b99190610e4e565b60405180910390f35b600260009054906101000a900473ffffffffffffffffffffffffffffffffffffffff1681565b600160009054906101000a900473ffffffffffffffffffffffffffffffffffffffff1681565b600080600360008481526020019081526020016000206040518060a0016040529081600082015481526020016001820160009054906101000a900460ff161515151581526020016001820160019054906101000a900460ff161515151581526020016001820160029054906101000a900473ffffffffffffffffffffffffffffffffffffffff1673ffffffffffffffffffffffffffffffffffffffff1673ffffffffffffffffffffffffffffffffffffffff16815260200160028201548152505090508060200151915050919050565b6102e6610dc1565b6000600360008481526020019081526020016000206040518060a0016040529081600082015481526020016001820160009054906101000a900460ff161515151581526020016001820160019054906101000a900460ff161515151581526020016001820160029054906101000a900473ffffffffffffffffffffffffffffffffffffffff1673ffffffffffffffffffffffffffffffffffffffff1673ffffffffffffffffffffffffffffffffffffffff168152602001600282015481525050905080915050919050565b600260009054906101000a900473ffffffffffffffffffffffffffffffffffffffff1673ffffffffffffffffffffffffffffffffffffffff163373ffffffffffffffffffffffffffffffffffffffff1614610441576040517f08c379a000000000000000000000000000000000000000000000000000000000815260040161043890611304565b60405180910390fd5b80600260006101000a81548173ffffffffffffffffffffffffffffffffffffffff021916908373ffffffffffffffffffffffffffffffffffffffff16021790555050565b600260009054906101000a900473ffffffffffffffffffffffffffffffffffffffff1673ffffffffffffffffffffffffffffffffffffffff163373ffffffffffffffffffffffffffffffffffffffff1614610515576040517f08c379a000000000000000000000000000000000000000000000000000000000815260040161050c90611304565b60405180910390fd5b80600060026101000a81548173ffffffffffffffffffffffffffffffffffffffff021916908373ffffffffffffffffffffffffffffffffffffffff160217905550600060029054906101000a900473ffffffffffffffffffffffffffffffffffffffff16600160006101000a81548173ffffffffffffffffffffffffffffffffffffffff021916908373ffffffffffffffffffffffffffffffffffffffff16021790555050565b600060029054906101000a900473ffffffffffffffffffffffffffffffffffffffff1673ffffffffffffffffffffffffffffffffffffffff163373ffffffffffffffffffffffffffffffffffffffff161461064c576040517f08c379a000000000000000000000000000000000000000000000000000000000815260040161064390611396565b60405180910390fd5b60006040518060400160405280601c81526020017f19457468657265756d205369676e6564204d6573736167653a0a33320000000081525090506000818560405160200161069b929190611451565b60405160208183030381529060405280519060200120905060006106bf8285610a43565b9050600015153073ffffffffffffffffffffffffffffffffffffffff16636346000b896040518263ffffffff1660e01b81526004016106fe9190611488565b60206040518083038186803b15801561071657600080fd5b505afa15801561072a573d6000803e3d6000fd5b505050506040513d601f19601f8201168201806040525081019061074e91906114b8565b151514610790576040517f08c379a000000000000000000000000000000000000000000000000000000000815260040161078790611557565b60405180910390fd5b60006003600089815260200190815260200160002090508060010160019054906101000a900460ff1661084c57818160010160026101000a81548173ffffffffffffffffffffffffffffffffffffffff021916908373ffffffffffffffffffffffffffffffffffffffff16021790555087816002018190555042816000018190555060018160010160016101000a81548160ff021916908315150217905550858160010160006101000a81548160ff0219169083151502179055505b878273ffffffffffffffffffffffffffffffffffffffff167f33bc481696695ade64433419d4bd13ff5380a88afd151a5ac038c36b29553402426040516108939190611586565b60405180910390a35050505050505050565b60008060019054906101000a900460ff161590508080156108d65750600160008054906101000a900460ff1660ff16105b8061090357506108e530610a6a565b1580156109025750600160008054906101000a900460ff1660ff16145b5b610942576040517f08c379a000000000000000000000000000000000000000000000000000000000815260040161093990611613565b60405180910390fd5b60016000806101000a81548160ff021916908360ff160217905550801561097f576001600060016101000a81548160ff0219169083151502179055505b81600260006101000a81548173ffffffffffffffffffffffffffffffffffffffff021916908373ffffffffffffffffffffffffffffffffffffffff1602179055508015610a195760008060016101000a81548160ff0219169083151502179055507f7f26b83ff96e1f2b6a682f133852f6798a09c465da95921460cefb38474024986001604051610a10919061167b565b60405180910390a15b5050565b600060029054906101000a900473ffffffffffffffffffffffffffffffffffffffff1681565b6000806000610a528585610a8d565b91509150610a5f81610adf565b819250505092915050565b6000808273ffffffffffffffffffffffffffffffffffffffff163b119050919050565b600080604183511415610acf5760008060006020860151925060408601519150606086015160001a9050610ac387828585610cb4565b94509450505050610ad8565b60006002915091505b9250929050565b60006004811115610af357610af2611696565b5b816004811115610b0657610b05611696565b5b1415610b1157610cb1565b60016004811115610b2557610b24611696565b5b816004811115610b3857610b37611696565b5b1415610b79576040517f08c379a0000000000000000000000000000000000000000000000000000000008152600401610b7090611711565b60405180910390fd5b60026004811115610b8d57610b8c611696565b5b816004811115610ba057610b9f611696565b5b1415610be1576040517f08c379a0000000000000000000000000000000000000000000000000000000008152600401610bd89061177d565b60405180910390fd5b60036004811115610bf557610bf4611696565b5b816004811115610c0857610c07611696565b5b1415610c49576040517f08c379a0000000000000000000000000000000000000000000000000000000008152600401610c409061180f565b60405180910390fd5b600480811115610c5c57610c5b611696565b5b816004811115610c6f57610c6e611696565b5b1415610cb0576040517f08c379a0000000000000000000000000000000000000000000000000000000008152600401610ca7906118a1565b60405180910390fd5b5b50565b6000807f7fffffffffffffffffffffffffffffff5d576e7357a4501ddfe92f46681b20a08360001c1115610cef576000600391509150610db8565b601b8560ff1614158015610d075750601c8560ff1614155b15610d19576000600491509150610db8565b600060018787878760405160008152602001604052604051610d3e94939291906118d0565b6020604051602081039080840390855afa158015610d60573d6000803e3d6000fd5b505050602060405103519050600073ffffffffffffffffffffffffffffffffffffffff168173ffffffffffffffffffffffffffffffffffffffff161415610daf57600060019250925050610db8565b80600092509250505b94509492505050565b6040518060a0016040528060008152602001600015158152602001600015158152602001600073ffffffffffffffffffffffffffffffffffffffff168152602001600080191681525090565b600073ffffffffffffffffffffffffffffffffffffffff82169050919050565b6000610e3882610e0d565b9050919050565b610e4881610e2d565b82525050565b6000602082019050610e636000830184610e3f565b92915050565b6000819050919050565b6000610e8e610e89610e8484610e0d565b610e69565b610e0d565b9050919050565b6000610ea082610e73565b9050919050565b6000610eb282610e95565b9050919050565b610ec281610ea7565b82525050565b6000602082019050610edd6000830184610eb9565b92915050565b6000604051905090565b600080fd5b600080fd5b6000819050919050565b610f0a81610ef7565b8114610f1557600080fd5b50565b600081359050610f2781610f01565b92915050565b600060208284031215610f4357610f42610eed565b5b6000610f5184828501610f18565b91505092915050565b60008115159050919050565b610f6f81610f5a565b82525050565b6000602082019050610f8a6000830184610f66565b92915050565b6000819050919050565b610fa381610f90565b82525050565b610fb281610f5a565b82525050565b610fc181610e2d565b82525050565b610fd081610ef7565b82525050565b60a082016000820151610fec6000850182610f9a565b506020820151610fff6020850182610fa9565b5060408201516110126040850182610fa9565b5060608201516110256060850182610fb8565b5060808201516110386080850182610fc7565b50505050565b600060a0820190506110536000830184610fd6565b92915050565b61106281610e2d565b811461106d57600080fd5b50565b60008135905061107f81611059565b92915050565b60006020828403121561109b5761109a610eed565b5b60006110a984828501611070565b91505092915050565b6110bb81610f5a565b81146110c657600080fd5b50565b6000813590506110d8816110b2565b92915050565b600080fd5b600080fd5b6000601f19601f8301169050919050565b7f4e487b7100000000000000000000000000000000000000000000000000000000600052604160045260246000fd5b611131826110e8565b810181811067ffffffffffffffff821117156111505761114f6110f9565b5b80604052505050565b6000611163610ee3565b905061116f8282611128565b919050565b600067ffffffffffffffff82111561118f5761118e6110f9565b5b611198826110e8565b9050602081019050919050565b82818337600083830152505050565b60006111c76111c284611174565b611159565b9050828152602081018484840111156111e3576111e26110e3565b5b6111ee8482856111a5565b509392505050565b600082601f83011261120b5761120a6110de565b5b813561121b8482602086016111b4565b91505092915050565b6000806000806080858703121561123e5761123d610eed565b5b600061124c87828801610f18565b945050602061125d87828801610f18565b935050604061126e878288016110c9565b925050606085013567ffffffffffffffff81111561128f5761128e610ef2565b5b61129b878288016111f6565b91505092959194509250565b600082825260208201905092915050565b7f4f6e6c7920477561726469616e20566572696669657200000000000000000000600082015250565b60006112ee6016836112a7565b91506112f9826112b8565b602082019050919050565b6000602082019050818103600083015261131d816112e1565b9050919050565b7f4f6e6c7920526567697374727920436f6e74726163743a206e6f7420616c6c6f60008201527f7765642000000000000000000000000000000000000000000000000000000000602082015250565b60006113806024836112a7565b915061138b82611324565b604082019050919050565b600060208201905081810360008301526113af81611373565b9050919050565b600081519050919050565b600081905092915050565b60005b838110156113ea5780820151818401526020810190506113cf565b838111156113f9576000848401525b50505050565b600061140a826113b6565b61141481856113c1565b93506114248185602086016113cc565b80840191505092915050565b6000819050919050565b61144b61144682610ef7565b611430565b82525050565b600061145d82856113ff565b9150611469828461143a565b6020820191508190509392505050565b61148281610ef7565b82525050565b600060208201905061149d6000830184611479565b92915050565b6000815190506114b2816110b2565b92915050565b6000602082840312156114ce576114cd610eed565b5b60006114dc848285016114a3565b91505092915050565b7f7265636f726420616c726561647920636c61696d656420616e6420766572696660008201527f6965640000000000000000000000000000000000000000000000000000000000602082015250565b60006115416023836112a7565b915061154c826114e5565b604082019050919050565b6000602082019050818103600083015261157081611534565b9050919050565b61158081610f90565b82525050565b600060208201905061159b6000830184611577565b92915050565b7f496e697469616c697a61626c653a20636f6e747261637420697320616c72656160008201527f647920696e697469616c697a6564000000000000000000000000000000000000602082015250565b60006115fd602e836112a7565b9150611608826115a1565b604082019050919050565b6000602082019050818103600083015261162c816115f0565b9050919050565b6000819050919050565b600060ff82169050919050565b600061166561166061165b84611633565b610e69565b61163d565b9050919050565b6116758161164a565b82525050565b6000602082019050611690600083018461166c565b92915050565b7f4e487b7100000000000000000000000000000000000000000000000000000000600052602160045260246000fd5b7f45434453413a20696e76616c6964207369676e61747572650000000000000000600082015250565b60006116fb6018836112a7565b9150611706826116c5565b602082019050919050565b6000602082019050818103600083015261172a816116ee565b9050919050565b7f45434453413a20696e76616c6964207369676e6174757265206c656e67746800600082015250565b6000611767601f836112a7565b915061177282611731565b602082019050919050565b600060208201905081810360008301526117968161175a565b9050919050565b7f45434453413a20696e76616c6964207369676e6174757265202773272076616c60008201527f7565000000000000000000000000000000000000000000000000000000000000602082015250565b60006117f96022836112a7565b91506118048261179d565b604082019050919050565b60006020820190508181036000830152611828816117ec565b9050919050565b7f45434453413a20696e76616c6964207369676e6174757265202776272076616c60008201527f7565000000000000000000000000000000000000000000000000000000000000602082015250565b600061188b6022836112a7565b91506118968261182f565b604082019050919050565b600060208201905081810360008301526118ba8161187e565b9050919050565b6118ca8161163d565b82525050565b60006080820190506118e56000830187611479565b6118f260208301866118c1565b6118ff6040830185611479565b61190c6060830184611479565b9594505050505056fea2646970667358221220ba4828f1d914b55baf76a36b8fff5c91fc98f4f7e7ea1d53b54d0e521826781564736f6c63430008090033",
  "linkReferences": {},
  "deployedLinkReferences": {}
}